{
  "_format": "hh-sol-artifact-1",
  "contractName": "MyEpicNFT",
  "sourceName": "contracts/MyEpicNFT.sol",
  "abi": [
    {
      "inputs": [],
      "stateMutability": "nonpayable",
      "type": "constructor"
    },
    {
      "anonymous": false,
      "inputs": [
        {
          "indexed": true,
          "internalType": "address",
          "name": "owner",
          "type": "address"
        },
        {
          "indexed": true,
          "internalType": "address",
          "name": "approved",
          "type": "address"
        },
        {
          "indexed": true,
          "internalType": "uint256",
          "name": "tokenId",
          "type": "uint256"
        }
      ],
      "name": "Approval",
      "type": "event"
    },
    {
      "anonymous": false,
      "inputs": [
        {
          "indexed": true,
          "internalType": "address",
          "name": "owner",
          "type": "address"
        },
        {
          "indexed": true,
          "internalType": "address",
          "name": "operator",
          "type": "address"
        },
        {
          "indexed": false,
          "internalType": "bool",
          "name": "approved",
          "type": "bool"
        }
      ],
      "name": "ApprovalForAll",
      "type": "event"
    },
    {
      "anonymous": false,
      "inputs": [
        {
          "indexed": true,
          "internalType": "address",
          "name": "from",
          "type": "address"
        },
        {
          "indexed": true,
          "internalType": "address",
          "name": "to",
          "type": "address"
        },
        {
          "indexed": true,
          "internalType": "uint256",
          "name": "tokenId",
          "type": "uint256"
        }
      ],
      "name": "Transfer",
      "type": "event"
    },
    {
      "inputs": [
        {
          "internalType": "address",
          "name": "to",
          "type": "address"
        },
        {
          "internalType": "uint256",
          "name": "tokenId",
          "type": "uint256"
        }
      ],
      "name": "approve",
      "outputs": [],
      "stateMutability": "nonpayable",
      "type": "function"
    },
    {
      "inputs": [
        {
          "internalType": "address",
          "name": "owner",
          "type": "address"
        }
      ],
      "name": "balanceOf",
      "outputs": [
        {
          "internalType": "uint256",
          "name": "",
          "type": "uint256"
        }
      ],
      "stateMutability": "view",
      "type": "function"
    },
    {
      "inputs": [
        {
          "internalType": "uint256",
          "name": "tokenId",
          "type": "uint256"
        }
      ],
      "name": "getApproved",
      "outputs": [
        {
          "internalType": "address",
          "name": "",
          "type": "address"
        }
      ],
      "stateMutability": "view",
      "type": "function"
    },
    {
      "inputs": [
        {
          "internalType": "address",
          "name": "owner",
          "type": "address"
        },
        {
          "internalType": "address",
          "name": "operator",
          "type": "address"
        }
      ],
      "name": "isApprovedForAll",
      "outputs": [
        {
          "internalType": "bool",
          "name": "",
          "type": "bool"
        }
      ],
      "stateMutability": "view",
      "type": "function"
    },
    {
      "inputs": [],
      "name": "makeAnEpicNFT",
      "outputs": [],
      "stateMutability": "nonpayable",
      "type": "function"
    },
    {
      "inputs": [],
      "name": "name",
      "outputs": [
        {
          "internalType": "string",
          "name": "",
          "type": "string"
        }
      ],
      "stateMutability": "view",
      "type": "function"
    },
    {
      "inputs": [
        {
          "internalType": "uint256",
          "name": "tokenId",
          "type": "uint256"
        }
      ],
      "name": "ownerOf",
      "outputs": [
        {
          "internalType": "address",
          "name": "",
          "type": "address"
        }
      ],
      "stateMutability": "view",
      "type": "function"
    },
    {
      "inputs": [
        {
          "internalType": "uint256",
          "name": "tokenId",
          "type": "uint256"
        }
      ],
      "name": "pickRandomFirePokemon",
      "outputs": [
        {
          "components": [
            {
              "internalType": "string",
              "name": "url",
              "type": "string"
            },
            {
              "internalType": "string",
              "name": "name",
              "type": "string"
            }
          ],
          "internalType": "struct MyEpicNFT.PokemonData",
          "name": "",
          "type": "tuple"
        }
      ],
      "stateMutability": "view",
      "type": "function"
    },
    {
      "inputs": [
        {
          "internalType": "uint256",
          "name": "tokenId",
          "type": "uint256"
        }
      ],
      "name": "pickRandomGrassPokemon",
      "outputs": [
        {
          "components": [
            {
              "internalType": "string",
              "name": "url",
              "type": "string"
            },
            {
              "internalType": "string",
              "name": "name",
              "type": "string"
            }
          ],
          "internalType": "struct MyEpicNFT.PokemonData",
          "name": "",
          "type": "tuple"
        }
      ],
      "stateMutability": "view",
      "type": "function"
    },
    {
      "inputs": [
        {
          "internalType": "uint256",
          "name": "tokenId",
          "type": "uint256"
        }
      ],
      "name": "pickRandomWaterPokemon",
      "outputs": [
        {
          "components": [
            {
              "internalType": "string",
              "name": "url",
              "type": "string"
            },
            {
              "internalType": "string",
              "name": "name",
              "type": "string"
            }
          ],
          "internalType": "struct MyEpicNFT.PokemonData",
          "name": "",
          "type": "tuple"
        }
      ],
      "stateMutability": "view",
      "type": "function"
    },
    {
      "inputs": [
        {
          "internalType": "address",
          "name": "from",
          "type": "address"
        },
        {
          "internalType": "address",
          "name": "to",
          "type": "address"
        },
        {
          "internalType": "uint256",
          "name": "tokenId",
          "type": "uint256"
        }
      ],
      "name": "safeTransferFrom",
      "outputs": [],
      "stateMutability": "nonpayable",
      "type": "function"
    },
    {
      "inputs": [
        {
          "internalType": "address",
          "name": "from",
          "type": "address"
        },
        {
          "internalType": "address",
          "name": "to",
          "type": "address"
        },
        {
          "internalType": "uint256",
          "name": "tokenId",
          "type": "uint256"
        },
        {
          "internalType": "bytes",
          "name": "data",
          "type": "bytes"
        }
      ],
      "name": "safeTransferFrom",
      "outputs": [],
      "stateMutability": "nonpayable",
      "type": "function"
    },
    {
      "inputs": [
        {
          "internalType": "address",
          "name": "operator",
          "type": "address"
        },
        {
          "internalType": "bool",
          "name": "approved",
          "type": "bool"
        }
      ],
      "name": "setApprovalForAll",
      "outputs": [],
      "stateMutability": "nonpayable",
      "type": "function"
    },
    {
      "inputs": [
        {
          "internalType": "bytes4",
          "name": "interfaceId",
          "type": "bytes4"
        }
      ],
      "name": "supportsInterface",
      "outputs": [
        {
          "internalType": "bool",
          "name": "",
          "type": "bool"
        }
      ],
      "stateMutability": "view",
      "type": "function"
    },
    {
      "inputs": [],
      "name": "symbol",
      "outputs": [
        {
          "internalType": "string",
          "name": "",
          "type": "string"
        }
      ],
      "stateMutability": "view",
      "type": "function"
    },
    {
      "inputs": [
        {
          "internalType": "uint256",
          "name": "tokenId",
          "type": "uint256"
        }
      ],
      "name": "tokenURI",
      "outputs": [
        {
          "internalType": "string",
          "name": "",
          "type": "string"
        }
      ],
      "stateMutability": "view",
      "type": "function"
    },
    {
      "inputs": [
        {
          "internalType": "address",
          "name": "from",
          "type": "address"
        },
        {
          "internalType": "address",
          "name": "to",
          "type": "address"
        },
        {
          "internalType": "uint256",
          "name": "tokenId",
          "type": "uint256"
        }
      ],
      "name": "transferFrom",
      "outputs": [],
      "stateMutability": "nonpayable",
      "type": "function"
    }
  ],
  "bytecode": "0x608060405260405180610100016040528060c781526020016200854b60c79139600c908051906020019062000036929190620032c0565b506040518060600160405280603e8152602001620084b5603e9139600d908051906020019062000068929190620032c0565b506040518060600160405280603e815260200162007c1a603e9139600e90805190602001906200009a929190620032c0565b50348015620000a857600080fd5b506040518060400160405280600981526020017f4368617665734e465400000000000000000000000000000000000000000000008152506040518060400160405280600581526020017f434841564f00000000000000000000000000000000000000000000000000000081525081600090805190602001906200012d929190620032c0565b50806001908051906020019062000146929190620032c0565b50505062000159620001aa60201b60201c565b620001a46040518060400160405280601b81526020017f496e697469616c697a696e6720506f6b656d6f6e732061727261790000000000815250620031f460201b6200130a1760201c565b6200349d565b6008604051806040016040528060405180608001604052806058815260200162007dbd6058913981526020016040518060400160405280600981526020017f42756c62617361757200000000000000000000000000000000000000000000008152508152509080600181540180825580915050600190039060005260206000209060020201600090919091909150600082015181600001908051906020019062000256929190620032c0565b50602082015181600101908051906020019062000275929190620032c0565b50505060086040518060400160405280604051806080016040528060588152602001620083ab6058913981526020016040518060400160405280600781526020017f49767973617572000000000000000000000000000000000000000000000000008152508152509080600181540180825580915050600190039060005260206000209060020201600090919091909150600082015181600001908051906020019062000324929190620032c0565b50602082015181600101908051906020019062000343929190620032c0565b5050506008604051806040016040528060405180608001604052806058815260200162007e156058913981526020016040518060400160405280600881526020017f56656e757361757200000000000000000000000000000000000000000000000081525081525090806001815401808255809150506001900390600052602060002090600202016000909190919091506000820151816000019080519060200190620003f2929190620032c0565b50602082015181600101908051906020019062000411929190620032c0565b50505060086040518060400160405280604051806080016040528060598152602001620079a66059913981526020016040518060400160405280600681526020017f4f6464697368000000000000000000000000000000000000000000000000000081525081525090806001815401808255809150506001900390600052602060002090600202016000909190919091506000820151816000019080519060200190620004c0929190620032c0565b506020820151816001019080519060200190620004df929190620032c0565b5050506008604051806040016040528060405180608001604052806059815260200162007d646059913981526020016040518060400160405280600581526020017f476c6f6f6d000000000000000000000000000000000000000000000000000000815250815250908060018154018082558091505060019003906000526020600020906002020160009091909190915060008201518160000190805190602001906200058e929190620032c0565b506020820151816001019080519060200190620005ad929190620032c0565b50505060086040518060400160405280604051806080016040528060598152602001620086c56059913981526020016040518060400160405280600981526020017f56696c65706c756d650000000000000000000000000000000000000000000000815250815250908060018154018082558091505060019003906000526020600020906002020160009091909190915060008201518160000190805190602001906200065c929190620032c0565b5060208201518160010190805190602001906200067b929190620032c0565b50505060086040518060400160405280604051806080016040528060598152602001620078f46059913981526020016040518060400160405280600a81526020017f42656c6c7370726f757400000000000000000000000000000000000000000000815250815250908060018154018082558091505060019003906000526020600020906002020160009091909190915060008201518160000190805190602001906200072a929190620032c0565b50602082015181600101908051906020019062000749929190620032c0565b50505060086040518060400160405280604051806080016040528060598152602001620089ea6059913981526020016040518060400160405280600a81526020017f57656570696e62656c6c0000000000000000000000000000000000000000000081525081525090806001815401808255809150506001900390600052602060002090600202016000909190919091506000820151816000019080519060200190620007f8929190620032c0565b50602082015181600101908051906020019062000817929190620032c0565b505050600860405180604001604052806040518060800160405280605981526020016200866c6059913981526020016040518060400160405280600a81526020017f5669637472656562656c0000000000000000000000000000000000000000000081525081525090806001815401808255809150506001900390600052602060002090600202016000909190919091506000820151816000019080519060200190620008c6929190620032c0565b506020820151816001019080519060200190620008e5929190620032c0565b505050600860405180604001604052806040518060800160405280605a815260200162008828605a913981526020016040518060400160405280600981526020017f45786567676375746500000000000000000000000000000000000000000000008152508152509080600181540180825580915050600190039060005260206000209060020201600090919091909150600082015181600001908051906020019062000994929190620032c0565b506020820151816001019080519060200190620009b3929190620032c0565b505050600860405180604001604052806040518060800160405280605a8152602001620081eb605a913981526020016040518060400160405280600981526020017f457865676775746f7200000000000000000000000000000000000000000000008152508152509080600181540180825580915050600190039060005260206000209060020201600090919091909150600082015181600001908051906020019062000a62929190620032c0565b50602082015181600101908051906020019062000a81929190620032c0565b505050600860405180604001604052806040518060800160405280605a815260200162007682605a913981526020016040518060400160405280600781526020017f54616e67656c61000000000000000000000000000000000000000000000000008152508152509080600181540180825580915050600190039060005260206000209060020201600090919091909150600082015181600001908051906020019062000b30929190620032c0565b50602082015181600101908051906020019062000b4f929190620032c0565b505050600860405180604001604052806040518060800160405280605a815260200162007b0d605a913981526020016040518060400160405280600981526020017f4368696b6f7269746100000000000000000000000000000000000000000000008152508152509080600181540180825580915050600190039060005260206000209060020201600090919091909150600082015181600001908051906020019062000bfe929190620032c0565b50602082015181600101908051906020019062000c1d929190620032c0565b505050600860405180604001604052806040518060800160405280605a815260200162008191605a913981526020016040518060400160405280600781526020017f4261796c656566000000000000000000000000000000000000000000000000008152508152509080600181540180825580915050600190039060005260206000209060020201600090919091909150600082015181600001908051906020019062000ccc929190620032c0565b50602082015181600101908051906020019062000ceb929190620032c0565b505050600860405180604001604052806040518060800160405280605a8152602001620076dc605a913981526020016040518060400160405280600881526020017f4d6567616e69756d0000000000000000000000000000000000000000000000008152508152509080600181540180825580915050600190039060005260206000209060020201600090919091909150600082015181600001908051906020019062000d9a929190620032c0565b50602082015181600101908051906020019062000db9929190620032c0565b505050600860405180604001604052806040518060800160405280605a81526020016200871e605a913981526020016040518060400160405280600981526020017f42656c6c6f73736f6d00000000000000000000000000000000000000000000008152508152509080600181540180825580915050600190039060005260206000209060020201600090919091909150600082015181600001908051906020019062000e68929190620032c0565b50602082015181600101908051906020019062000e87929190620032c0565b505050600860405180604001604052806040518060800160405280605a815260200162008936605a913981526020016040518060400160405280600681526020017f486f7070697000000000000000000000000000000000000000000000000000008152508152509080600181540180825580915050600190039060005260206000209060020201600090919091909150600082015181600001908051906020019062000f36929190620032c0565b50602082015181600101908051906020019062000f55929190620032c0565b505050600860405180604001604052806040518060800160405280605a815260200162007f79605a913981526020016040518060400160405280600881526020017f536b69706c6f6f6d0000000000000000000000000000000000000000000000008152508152509080600181540180825580915050600190039060005260206000209060020201600090919091909150600082015181600001908051906020019062001004929190620032c0565b50602082015181600101908051906020019062001023929190620032c0565b505050600860405180604001604052806040518060800160405280605a81526020016200802d605a913981526020016040518060400160405280600881526020017f4a756d706c75666600000000000000000000000000000000000000000000000081525081525090806001815401808255809150506001900390600052602060002090600202016000909190919091506000820151816000019080519060200190620010d2929190620032c0565b506020820151816001019080519060200190620010f1929190620032c0565b505050600860405180604001604052806040518060800160405280605a815260200162008351605a913981526020016040518060400160405280600781526020017f53756e6b65726e0000000000000000000000000000000000000000000000000081525081525090806001815401808255809150506001900390600052602060002090600202016000909190919091506000820151816000019080519060200190620011a0929190620032c0565b506020820151816001019080519060200190620011bf929190620032c0565b50505060096040518060400160405280604051806080016040528060588152602001620080876058913981526020016040518060400160405280600881526020017f5371756972746c65000000000000000000000000000000000000000000000000815250815250908060018154018082558091505060019003906000526020600020906002020160009091909190915060008201518160000190805190602001906200126e929190620032c0565b5060208201518160010190805190602001906200128d929190620032c0565b50505060096040518060400160405280604051806080016040528060588152602001620087d06058913981526020016040518060400160405280600981526020017f576172746f72746c650000000000000000000000000000000000000000000000815250815250908060018154018082558091505060019003906000526020600020906002020160009091909190915060008201518160000190805190602001906200133c929190620032c0565b5060208201518160010190805190602001906200135b929190620032c0565b505050600960405180604001604052806040518060800160405280605881526020016200829f6058913981526020016040518060400160405280600981526020017f426c6173746f6973650000000000000000000000000000000000000000000000815250815250908060018154018082558091505060019003906000526020600020906002020160009091909190915060008201518160000190805190602001906200140a929190620032c0565b50602082015181600101908051906020019062001429929190620032c0565b5050506009604051806040016040528060405180608001604052806059815260200162008a9c6059913981526020016040518060400160405280600781526020017f5073796475636b0000000000000000000000000000000000000000000000000081525081525090806001815401808255809150506001900390600052602060002090600202016000909190919091506000820151816000019080519060200190620014d8929190620032c0565b506020820151816001019080519060200190620014f7929190620032c0565b505050600960405180604001604052806040518060800160405280605981526020016200789b6059913981526020016040518060400160405280600781526020017f476f6c6475636b0000000000000000000000000000000000000000000000000081525081525090806001815401808255809150506001900390600052602060002090600202016000909190919091506000820151816000019080519060200190620015a6929190620032c0565b506020820151816001019080519060200190620015c5929190620032c0565b50505060096040518060400160405280604051806080016040528060598152602001620080df6059913981526020016040518060400160405280600781526020017f506f6c69776167000000000000000000000000000000000000000000000000008152508152509080600181540180825580915050600190039060005260206000209060020201600090919091909150600082015181600001908051906020019062001674929190620032c0565b50602082015181600101908051906020019062001693929190620032c0565b505050600960405180604001604052806040518060800160405280605981526020016200845c6059913981526020016040518060400160405280600981526020017f506f6c69776869726c00000000000000000000000000000000000000000000008152508152509080600181540180825580915050600190039060005260206000209060020201600090919091909150600082015181600001908051906020019062001742929190620032c0565b50602082015181600101908051906020019062001761929190620032c0565b5050506009604051806040016040528060405180608001604052806059815260200162008a436059913981526020016040518060400160405280600981526020017f506f6c69777261746800000000000000000000000000000000000000000000008152508152509080600181540180825580915050600190039060005260206000209060020201600090919091909150600082015181600001908051906020019062001810929190620032c0565b5060208201518160010190805190602001906200182f929190620032c0565b50505060096040518060400160405280604051806080016040528060598152602001620078426059913981526020016040518060400160405280600981526020017f54656e7461636f6f6c000000000000000000000000000000000000000000000081525081525090806001815401808255809150506001900390600052602060002090600202016000909190919091506000820151816000019080519060200190620018de929190620032c0565b506020820151816001019080519060200190620018fd929190620032c0565b5050506009604051806040016040528060405180608001604052806059815260200162007c586059913981526020016040518060400160405280600a81526020017f54656e7461637275656c0000000000000000000000000000000000000000000081525081525090806001815401808255809150506001900390600052602060002090600202016000909190919091506000820151816000019080519060200190620019ac929190620032c0565b506020820151816001019080519060200190620019cb929190620032c0565b505050600960405180604001604052806040518060800160405280605981526020016200778f6059913981526020016040518060400160405280600881526020017f536c6f77706f6b650000000000000000000000000000000000000000000000008152508152509080600181540180825580915050600190039060005260206000209060020201600090919091909150600082015181600001908051906020019062001a7a929190620032c0565b50602082015181600101908051906020019062001a99929190620032c0565b505050600960405180604001604052806040518060800160405280605981526020016200751e6059913981526020016040518060400160405280600781526020017f536c6f7762726f000000000000000000000000000000000000000000000000008152508152509080600181540180825580915050600190039060005260206000209060020201600090919091909150600082015181600001908051906020019062001b48929190620032c0565b50602082015181600101908051906020019062001b67929190620032c0565b5050506009604051806040016040528060405180608001604052806059815260200162007bc16059913981526020016040518060400160405280600881526020017f5368656c6c6465720000000000000000000000000000000000000000000000008152508152509080600181540180825580915050600190039060005260206000209060020201600090919091909150600082015181600001908051906020019062001c16929190620032c0565b50602082015181600101908051906020019062001c35929190620032c0565b5050506009604051806040016040528060405180608001604052806059815260200162007f206059913981526020016040518060400160405280600881526020017f436c6f79737465720000000000000000000000000000000000000000000000008152508152509080600181540180825580915050600190039060005260206000209060020201600090919091909150600082015181600001908051906020019062001ce4929190620032c0565b50602082015181600101908051906020019062001d03929190620032c0565b50505060096040518060400160405280604051806080016040528060598152602001620077366059913981526020016040518060400160405280600681526020017f4b726162627900000000000000000000000000000000000000000000000000008152508152509080600181540180825580915050600190039060005260206000209060020201600090919091909150600082015181600001908051906020019062001db2929190620032c0565b50602082015181600101908051906020019062001dd1929190620032c0565b5050506009604051806040016040528060405180608001604052806059815260200162008af56059913981526020016040518060400160405280600781526020017f4b696e676c6572000000000000000000000000000000000000000000000000008152508152509080600181540180825580915050600190039060005260206000209060020201600090919091909150600082015181600001908051906020019062001e80929190620032c0565b50602082015181600101908051906020019062001e9f929190620032c0565b505050600960405180604001604052806040518060800160405280605a815260200162007fd3605a913981526020016040518060400160405280600681526020017f486f7273656100000000000000000000000000000000000000000000000000008152508152509080600181540180825580915050600190039060005260206000209060020201600090919091909150600082015181600001908051906020019062001f4e929190620032c0565b50602082015181600101908051906020019062001f6d929190620032c0565b505050600960405180604001604052806040518060800160405280605a815260200162007ab3605a913981526020016040518060400160405280600681526020017f5365616472610000000000000000000000000000000000000000000000000000815250815250908060018154018082558091505060019003906000526020600020906002020160009091909190915060008201518160000190805190602001906200201c929190620032c0565b5060208201518160010190805190602001906200203b929190620032c0565b505050600960405180604001604052806040518060800160405280605a815260200162008882605a913981526020016040518060400160405280600681526020017f537461727975000000000000000000000000000000000000000000000000000081525081525090806001815401808255809150506001900390600052602060002090600202016000909190919091506000820151816000019080519060200190620020ea929190620032c0565b50602082015181600101908051906020019062002109929190620032c0565b505050600960405180604001604052806040518060800160405280605a8152602001620077e8605a913981526020016040518060400160405280600781526020017f537461726d69650000000000000000000000000000000000000000000000000081525081525090806001815401808255809150506001900390600052602060002090600202016000909190919091506000820151816000019080519060200190620021b8929190620032c0565b506020820151816001019080519060200190620021d7929190620032c0565b505050600a6040518060400160405280604051806080016040528060588152602001620084f36058913981526020016040518060400160405280600a81526020017f436861726d616e646572000000000000000000000000000000000000000000008152508152509080600181540180825580915050600190039060005260206000209060020201600090919091909150600082015181600001908051906020019062002286929190620032c0565b506020820151816001019080519060200190620022a5929190620032c0565b505050600a6040518060400160405280604051806080016040528060588152602001620087786058913981526020016040518060400160405280600a81526020017f436861726d656c656f6e000000000000000000000000000000000000000000008152508152509080600181540180825580915050600190039060005260206000209060020201600090919091909150600082015181600001908051906020019062002354929190620032c0565b50602082015181600101908051906020019062002373929190620032c0565b505050600a60405180604001604052806040518060800160405280605881526020016200762a6058913981526020016040518060400160405280600981526020017f43686172697a61726400000000000000000000000000000000000000000000008152508152509080600181540180825580915050600190039060005260206000209060020201600090919091909150600082015181600001908051906020019062002422929190620032c0565b50602082015181600101908051906020019062002441929190620032c0565b505050600a6040518060400160405280604051806080016040528060598152602001620075776059913981526020016040518060400160405280600681526020017f56756c706978000000000000000000000000000000000000000000000000000081525081525090806001815401808255809150506001900390600052602060002090600202016000909190919091506000820151816000019080519060200190620024f0929190620032c0565b5060208201518160010190805190602001906200250f929190620032c0565b505050600a604051806040016040528060405180608001604052806059815260200162007e6d6059913981526020016040518060400160405280600981526020017f4e696e6574616c6573000000000000000000000000000000000000000000000081525081525090806001815401808255809150506001900390600052602060002090600202016000909190919091506000820151816000019080519060200190620025be929190620032c0565b506020820151816001019080519060200190620025dd929190620032c0565b505050600a6040518060400160405280604051806080016040528060598152602001620081386059913981526020016040518060400160405280600981526020017f47726f776c697468650000000000000000000000000000000000000000000000815250815250908060018154018082558091505060019003906000526020600020906002020160009091909190915060008201518160000190805190602001906200268c929190620032c0565b506020820151816001019080519060200190620026ab929190620032c0565b505050600a604051806040016040528060405180608001604052806059815260200162007cb16059913981526020016040518060400160405280600881526020017f417263616e696e65000000000000000000000000000000000000000000000000815250815250908060018154018082558091505060019003906000526020600020906002020160009091909190915060008201518160000190805190602001906200275a929190620032c0565b50602082015181600101908051906020019062002779929190620032c0565b505050600a60405180604001604052806040518060800160405280605981526020016200794d6059913981526020016040518060400160405280600681526020017f506f6e79746100000000000000000000000000000000000000000000000000008152508152509080600181540180825580915050600190039060005260206000209060020201600090919091909150600082015181600001908051906020019062002828929190620032c0565b50602082015181600101908051906020019062002847929190620032c0565b505050600a6040518060400160405280604051806080016040528060598152602001620084036059913981526020016040518060400160405280600881526020017f526170696461736800000000000000000000000000000000000000000000000081525081525090806001815401808255809150506001900390600052602060002090600202016000909190919091506000820151816000019080519060200190620028f6929190620032c0565b50602082015181600101908051906020019062002915929190620032c0565b505050600a60405180604001604052806040518060800160405280605a8152602001620079ff605a913981526020016040518060400160405280600681526020017f4d61676d6172000000000000000000000000000000000000000000000000000081525081525090806001815401808255809150506001900390600052602060002090600202016000909190919091506000820151816000019080519060200190620029c4929190620032c0565b506020820151816001019080519060200190620029e3929190620032c0565b505050600a60405180604001604052806040518060800160405280605a8152602001620075d0605a913981526020016040518060400160405280600781526020017f466c6172656f6e000000000000000000000000000000000000000000000000008152508152509080600181540180825580915050600190039060005260206000209060020201600090919091909150600082015181600001908051906020019062002a92929190620032c0565b50602082015181600101908051906020019062002ab1929190620032c0565b505050600a60405180604001604052806040518060800160405280605a815260200162008990605a913981526020016040518060400160405280600981526020017f43796e64617175696c00000000000000000000000000000000000000000000008152508152509080600181540180825580915050600190039060005260206000209060020201600090919091909150600082015181600001908051906020019062002b60929190620032c0565b50602082015181600101908051906020019062002b7f929190620032c0565b505050600a60405180604001604052806040518060800160405280605a815260200162008245605a913981526020016040518060400160405280600781526020017f5175696c617661000000000000000000000000000000000000000000000000008152508152509080600181540180825580915050600190039060005260206000209060020201600090919091909150600082015181600001908051906020019062002c2e929190620032c0565b50602082015181600101908051906020019062002c4d929190620032c0565b505050600a60405180604001604052806040518060800160405280605a815260200162007b67605a913981526020016040518060400160405280600a81526020017f547970686c6f73696f6e000000000000000000000000000000000000000000008152508152509080600181540180825580915050600190039060005260206000209060020201600090919091909150600082015181600001908051906020019062002cfc929190620032c0565b50602082015181600101908051906020019062002d1b929190620032c0565b505050600a60405180604001604052806040518060800160405280605a815260200162008612605a913981526020016040518060400160405280600681526020017f536c75676d6100000000000000000000000000000000000000000000000000008152508152509080600181540180825580915050600190039060005260206000209060020201600090919091909150600082015181600001908051906020019062002dca929190620032c0565b50602082015181600101908051906020019062002de9929190620032c0565b505050600a60405180604001604052806040518060800160405280605a8152602001620088dc605a913981526020016040518060400160405280600881526020017f4d6167636172676f0000000000000000000000000000000000000000000000008152508152509080600181540180825580915050600190039060005260206000209060020201600090919091909150600082015181600001908051906020019062002e98929190620032c0565b50602082015181600101908051906020019062002eb7929190620032c0565b505050600a60405180604001604052806040518060800160405280605a815260200162007d0a605a913981526020016040518060400160405280600581526020017f4d616762790000000000000000000000000000000000000000000000000000008152508152509080600181540180825580915050600190039060005260206000209060020201600090919091909150600082015181600001908051906020019062002f66929190620032c0565b50602082015181600101908051906020019062002f85929190620032c0565b505050600a60405180604001604052806040518060800160405280605a8152602001620082f7605a913981526020016040518060400160405280600581526020017f456e7465690000000000000000000000000000000000000000000000000000008152508152509080600181540180825580915050600190039060005260206000209060020201600090919091909150600082015181600001908051906020019062003034929190620032c0565b50602082015181600101908051906020019062003053929190620032c0565b505050600a60405180604001604052806040518060800160405280605a815260200162007ec6605a913981526020016040518060400160405280600581526020017f486f2d4f680000000000000000000000000000000000000000000000000000008152508152509080600181540180825580915050600190039060005260206000209060020201600090919091909150600082015181600001908051906020019062003102929190620032c0565b50602082015181600101908051906020019062003121929190620032c0565b505050600a60405180604001604052806040518060800160405280605a815260200162007a59605a913981526020016040518060400160405280600781526020017f546f72636869630000000000000000000000000000000000000000000000000081525081525090806001815401808255809150506001900390600052602060002090600202016000909190919091506000820151816000019080519060200190620031d0929190620032c0565b506020820151816001019080519060200190620031ef929190620032c0565b505050565b62003294816040516024016200320b9190620033b1565b6040516020818303038152906040527f41304fac000000000000000000000000000000000000000000000000000000007bffffffffffffffffffffffffffffffffffffffffffffffffffffffff19166020820180517bffffffffffffffffffffffffffffffffffffffffffffffffffffffff83818316178352505050506200329760201b60201c565b50565b60008151905060006a636f6e736f6c652e6c6f679050602083016000808483855afa5050505050565b828054620032ce9062003427565b90600052602060002090601f016020900481019282620032f257600085556200333e565b82601f106200330d57805160ff19168380011785556200333e565b828001600101855582156200333e579182015b828111156200333d57825182559160200191906001019062003320565b5b5090506200334d919062003351565b5090565b5b808211156200336c57600081600090555060010162003352565b5090565b60006200337d82620033d5565b620033898185620033e0565b93506200339b818560208601620033f1565b620033a6816200348c565b840191505092915050565b60006020820190508181036000830152620033cd818462003370565b905092915050565b600081519050919050565b600082825260208201905092915050565b60005b8381101562003411578082015181840152602081019050620033f4565b8381111562003421576000848401525b50505050565b600060028204905060018216806200344057607f821691505b602082108114156200345757620034566200345d565b5b50919050565b7f4e487b7100000000000000000000000000000000000000000000000000000000600052602260045260246000fd5b6000601f19601f8301169050919050565b61407180620034ad6000396000f3fe608060405234801561001057600080fd5b506004361061010b5760003560e01c806370a08231116100a2578063b88d4fde11610071578063b88d4fde146102dc578063c87b56dd146102f8578063de9d132f14610328578063e5ec915814610332578063e985e9c5146103625761010b565b806370a08231146102425780637191b4011461027257806395d89b41146102a2578063a22cb465146102c05761010b565b806323b872dd116100de57806323b872dd146101aa57806342842e0e146101c65780636352211e146101e25780636526c49f146102125761010b565b806301ffc9a71461011057806306fdde0314610140578063081812fc1461015e578063095ea7b31461018e575b600080fd5b61012a60048036038101906101259190612b4b565b610392565b60405161013791906132a8565b60405180910390f35b610148610474565b60405161015591906132c3565b60405180910390f35b61017860048036038101906101739190612b9d565b610506565b6040516101859190613241565b60405180910390f35b6101a860048036038101906101a39190612b0f565b61054c565b005b6101c460048036038101906101bf9190612a09565b610664565b005b6101e060048036038101906101db9190612a09565b6106c4565b005b6101fc60048036038101906101f79190612b9d565b6106e4565b6040516102099190613241565b60405180910390f35b61022c60048036038101906102279190612b9d565b61076b565b60405161023991906134fa565b60405180910390f35b61025c600480360381019061025791906129a4565b610939565b604051610269919061351c565b60405180910390f35b61028c60048036038101906102879190612b9d565b6109f1565b60405161029991906134fa565b60405180910390f35b6102aa610bbf565b6040516102b791906132c3565b60405180910390f35b6102da60048036038101906102d59190612ad3565b610c51565b005b6102f660048036038101906102f19190612a58565b610c67565b005b610312600480360381019061030d9190612b9d565b610cc9565b60405161031f91906132c3565b60405180910390f35b610330610d71565b005b61034c60048036038101906103479190612b9d565b6110a8565b60405161035991906134fa565b60405180910390f35b61037c600480360381019061037791906129cd565b611276565b60405161038991906132a8565b60405180910390f35b60007f80ac58cd000000000000000000000000000000000000000000000000000000007bffffffffffffffffffffffffffffffffffffffffffffffffffffffff1916827bffffffffffffffffffffffffffffffffffffffffffffffffffffffff1916148061045d57507f5b5e139f000000000000000000000000000000000000000000000000000000007bffffffffffffffffffffffffffffffffffffffffffffffffffffffff1916827bffffffffffffffffffffffffffffffffffffffffffffffffffffffff1916145b8061046d575061046c826113a3565b5b9050919050565b60606000805461048390613778565b80601f01602080910402602001604051908101604052809291908181526020018280546104af90613778565b80156104fc5780601f106104d1576101008083540402835291602001916104fc565b820191906000526020600020905b8154815290600101906020018083116104df57829003601f168201915b5050505050905090565b60006105118261140d565b6004600083815260200190815260200160002060009054906101000a900473ffffffffffffffffffffffffffffffffffffffff169050919050565b6000610557826106e4565b90508073ffffffffffffffffffffffffffffffffffffffff168373ffffffffffffffffffffffffffffffffffffffff1614156105c8576040517f08c379a00000000000000000000000000000000000000000000000000000000081526004016105bf906134ba565b60405180910390fd5b8073ffffffffffffffffffffffffffffffffffffffff166105e7611458565b73ffffffffffffffffffffffffffffffffffffffff161480610616575061061581610610611458565b611276565b5b610655576040517f08c379a000000000000000000000000000000000000000000000000000000000815260040161064c906134da565b60405180910390fd5b61065f8383611460565b505050565b61067561066f611458565b82611519565b6106b4576040517f08c379a00000000000000000000000000000000000000000000000000000000081526004016106ab9061335a565b60405180910390fd5b6106bf8383836115ae565b505050565b6106df83838360405180602001604052806000815250610c67565b505050565b6000806106f0836118a8565b9050600073ffffffffffffffffffffffffffffffffffffffff168173ffffffffffffffffffffffffffffffffffffffff161415610762576040517f08c379a00000000000000000000000000000000000000000000000000000000081526004016107599061349a565b60405180910390fd5b80915050919050565b610773612816565b60006107a5610781846118e5565b60405160200161079191906131db565b604051602081830303815290604052611a09565b9050600980549050816107b89190613824565b9050600981815481106107f4577f4e487b7100000000000000000000000000000000000000000000000000000000600052603260045260246000fd5b906000526020600020906002020160405180604001604052908160008201805461081d90613778565b80601f016020809104026020016040519081016040528092919081815260200182805461084990613778565b80156108965780601f1061086b57610100808354040283529160200191610896565b820191906000526020600020905b81548152906001019060200180831161087957829003601f168201915b505050505081526020016001820180546108af90613778565b80601f01602080910402602001604051908101604052809291908181526020018280546108db90613778565b80156109285780601f106108fd57610100808354040283529160200191610928565b820191906000526020600020905b81548152906001019060200180831161090b57829003601f168201915b505050505081525050915050919050565b60008073ffffffffffffffffffffffffffffffffffffffff168273ffffffffffffffffffffffffffffffffffffffff1614156109aa576040517f08c379a00000000000000000000000000000000000000000000000000000000081526004016109a19061341a565b60405180910390fd5b600360008373ffffffffffffffffffffffffffffffffffffffff1673ffffffffffffffffffffffffffffffffffffffff168152602001908152602001600020549050919050565b6109f9612816565b6000610a2b610a07846118e5565b604051602001610a17919061321f565b604051602081830303815290604052611a09565b905060088054905081610a3e9190613824565b905060088181548110610a7a577f4e487b7100000000000000000000000000000000000000000000000000000000600052603260045260246000fd5b9060005260206000209060020201604051806040016040529081600082018054610aa390613778565b80601f0160208091040260200160405190810160405280929190818152602001828054610acf90613778565b8015610b1c5780601f10610af157610100808354040283529160200191610b1c565b820191906000526020600020905b815481529060010190602001808311610aff57829003601f168201915b50505050508152602001600182018054610b3590613778565b80601f0160208091040260200160405190810160405280929190818152602001828054610b6190613778565b8015610bae5780601f10610b8357610100808354040283529160200191610bae565b820191906000526020600020905b815481529060010190602001808311610b9157829003601f168201915b505050505081525050915050919050565b606060018054610bce90613778565b80601f0160208091040260200160405190810160405280929190818152602001828054610bfa90613778565b8015610c475780601f10610c1c57610100808354040283529160200191610c47565b820191906000526020600020905b815481529060010190602001808311610c2a57829003601f168201915b5050505050905090565b610c63610c5c611458565b8383611a3c565b5050565b610c78610c72611458565b83611519565b610cb7576040517f08c379a0000000000000000000000000000000000000000000000000000000008152600401610cae9061335a565b60405180910390fd5b610cc384848484611ba9565b50505050565b6060610cd482611c05565b610d13576040517f08c379a0000000000000000000000000000000000000000000000000000000008152600401610d0a9061347a565b60405180910390fd5b6000610d1d611c46565b5111610d385760405180602001604052806000815250610d6a565b610d40611c46565b610d49836118e5565b604051602001610d5a929190613095565b6040516020818303038152906040525b9050919050565b6000610d7d6007611cd8565b90506000610d8a826109f1565b90506000610d978361076b565b90506000610da4846110a8565b90506000600367ffffffffffffffff811115610de9577f4e487b7100000000000000000000000000000000000000000000000000000000600052604160045260246000fd5b604051908082528060200260200182016040528015610e1c57816020015b6060815260200190600190039081610e075790505b509050836000015181600081518110610e5e577f4e487b7100000000000000000000000000000000000000000000000000000000600052603260045260246000fd5b6020026020010181905250826000015181600181518110610ea8577f4e487b7100000000000000000000000000000000000000000000000000000000600052603260045260246000fd5b6020026020010181905250816000015181600281518110610ef2577f4e487b7100000000000000000000000000000000000000000000000000000000600052603260045260246000fd5b60200260200101819052506000610f0882611ce6565b90506000856020015185602001518560200151604051602001610f2d939291906130b9565b60405160208183030381529060405290506000610f7282610f4d85611dd6565b604051602001610f5e929190613196565b604051602081830303815290604052611dd6565b9050600081604051602001610f8791906131fd565b6040516020818303038152906040529050610fd66040518060400160405280601581526020017f0a2d2d2d2d2d2d2d2d2d2d2d2d2d2d2d2d2d2d2d2d000000000000000000000081525061130a565b610fdf8161130a565b61101d6040518060400160405280601581526020017f2d2d2d2d2d2d2d2d2d2d2d2d2d2d2d2d2d2d2d2d0a000000000000000000000081525061130a565b61105c6040518060400160405280601181526020017f47656e657261746564205356473a20257300000000000000000000000000000081525085611f94565b611066338a612030565b611070898261204e565b61107a60076120c2565b61109d604051806060016040528060278152602001614015602791398a336120d8565b505050505050505050565b6110b0612816565b60006110e26110be846118e5565b6040516020016110ce9190613174565b604051602081830303815290604052611a09565b9050600a80549050816110f59190613824565b9050600a8181548110611131577f4e487b7100000000000000000000000000000000000000000000000000000000600052603260045260246000fd5b906000526020600020906002020160405180604001604052908160008201805461115a90613778565b80601f016020809104026020016040519081016040528092919081815260200182805461118690613778565b80156111d35780601f106111a8576101008083540402835291602001916111d3565b820191906000526020600020905b8154815290600101906020018083116111b657829003601f168201915b505050505081526020016001820180546111ec90613778565b80601f016020809104026020016040519081016040528092919081815260200182805461121890613778565b80156112655780601f1061123a57610100808354040283529160200191611265565b820191906000526020600020905b81548152906001019060200180831161124857829003601f168201915b505050505081525050915050919050565b6000600560008473ffffffffffffffffffffffffffffffffffffffff1673ffffffffffffffffffffffffffffffffffffffff16815260200190815260200160002060008373ffffffffffffffffffffffffffffffffffffffff1673ffffffffffffffffffffffffffffffffffffffff16815260200190815260200160002060009054906101000a900460ff16905092915050565b6113a08160405160240161131e91906132c3565b6040516020818303038152906040527f41304fac000000000000000000000000000000000000000000000000000000007bffffffffffffffffffffffffffffffffffffffffffffffffffffffff19166020820180517bffffffffffffffffffffffffffffffffffffffffffffffffffffffff8381831617835250505050612177565b50565b60007f01ffc9a7000000000000000000000000000000000000000000000000000000007bffffffffffffffffffffffffffffffffffffffffffffffffffffffff1916827bffffffffffffffffffffffffffffffffffffffffffffffffffffffff1916149050919050565b61141681611c05565b611455576040517f08c379a000000000000000000000000000000000000000000000000000000000815260040161144c9061349a565b60405180910390fd5b50565b600033905090565b816004600083815260200190815260200160002060006101000a81548173ffffffffffffffffffffffffffffffffffffffff021916908373ffffffffffffffffffffffffffffffffffffffff160217905550808273ffffffffffffffffffffffffffffffffffffffff166114d3836106e4565b73ffffffffffffffffffffffffffffffffffffffff167f8c5be1e5ebec7d5bd14f71427d1e84f3dd0314c0f7b2291e5b200ac8c7c3b92560405160405180910390a45050565b600080611525836106e4565b90508073ffffffffffffffffffffffffffffffffffffffff168473ffffffffffffffffffffffffffffffffffffffff16148061156757506115668185611276565b5b806115a557508373ffffffffffffffffffffffffffffffffffffffff1661158d84610506565b73ffffffffffffffffffffffffffffffffffffffff16145b91505092915050565b8273ffffffffffffffffffffffffffffffffffffffff166115ce826106e4565b73ffffffffffffffffffffffffffffffffffffffff1614611624576040517f08c379a000000000000000000000000000000000000000000000000000000000815260040161161b9061339a565b60405180910390fd5b600073ffffffffffffffffffffffffffffffffffffffff168273ffffffffffffffffffffffffffffffffffffffff161415611694576040517f08c379a000000000000000000000000000000000000000000000000000000000815260040161168b906133da565b60405180910390fd5b6116a183838360016121a0565b8273ffffffffffffffffffffffffffffffffffffffff166116c1826106e4565b73ffffffffffffffffffffffffffffffffffffffff1614611717576040517f08c379a000000000000000000000000000000000000000000000000000000000815260040161170e9061339a565b60405180910390fd5b6004600082815260200190815260200160002060006101000a81549073ffffffffffffffffffffffffffffffffffffffff02191690556001600360008573ffffffffffffffffffffffffffffffffffffffff1673ffffffffffffffffffffffffffffffffffffffff168152602001908152602001600020600082825403925050819055506001600360008473ffffffffffffffffffffffffffffffffffffffff1673ffffffffffffffffffffffffffffffffffffffff16815260200190815260200160002060008282540192505081905550816002600083815260200190815260200160002060006101000a81548173ffffffffffffffffffffffffffffffffffffffff021916908373ffffffffffffffffffffffffffffffffffffffff160217905550808273ffffffffffffffffffffffffffffffffffffffff168473ffffffffffffffffffffffffffffffffffffffff167fddf252ad1be2c89b69c2b068fc378daa952ba7f163c4a11628f55a4df523b3ef60405160405180910390a46118a383838360016121a6565b505050565b60006002600083815260200190815260200160002060009054906101000a900473ffffffffffffffffffffffffffffffffffffffff169050919050565b6060600060016118f4846121ac565b01905060008167ffffffffffffffff811115611939577f4e487b7100000000000000000000000000000000000000000000000000000000600052604160045260246000fd5b6040519080825280601f01601f19166020018201604052801561196b5781602001600182028036833780820191505090505b509050600082602001820190505b6001156119fe578080600190039150507f3031323334353637383961626364656600000000000000000000000000000000600a86061a8153600a85816119e8577f4e487b7100000000000000000000000000000000000000000000000000000000600052601260045260246000fd5b04945060008514156119f9576119fe565b611979565b819350505050919050565b600081604051602001611a1c919061307e565b6040516020818303038152906040528051906020012060001c9050919050565b8173ffffffffffffffffffffffffffffffffffffffff168373ffffffffffffffffffffffffffffffffffffffff161415611aab576040517f08c379a0000000000000000000000000000000000000000000000000000000008152600401611aa2906133fa565b60405180910390fd5b80600560008573ffffffffffffffffffffffffffffffffffffffff1673ffffffffffffffffffffffffffffffffffffffff16815260200190815260200160002060008473ffffffffffffffffffffffffffffffffffffffff1673ffffffffffffffffffffffffffffffffffffffff16815260200190815260200160002060006101000a81548160ff0219169083151502179055508173ffffffffffffffffffffffffffffffffffffffff168373ffffffffffffffffffffffffffffffffffffffff167f17307eab39ab6107e8899845ad3d59bd9653f200f220920489ca2b5937696c3183604051611b9c91906132a8565b60405180910390a3505050565b611bb48484846115ae565b611bc0848484846123e3565b611bff576040517f08c379a0000000000000000000000000000000000000000000000000000000008152600401611bf69061337a565b60405180910390fd5b50505050565b60008073ffffffffffffffffffffffffffffffffffffffff16611c27836118a8565b73ffffffffffffffffffffffffffffffffffffffff1614159050919050565b6060600b8054611c5590613778565b80601f0160208091040260200160405190810160405280929190818152602001828054611c8190613778565b8015611cce5780601f10611ca357610100808354040283529160200191611cce565b820191906000526020600020905b815481529060010190602001808311611cb157829003601f168201915b5050505050905090565b600081600001549050919050565b606060006040518060c00160405280608d8152602001613f88608d9139905060005b8351811015611daa5781611d33600a607384611d249190613668565b611d2e91906135e1565b6118e5565b858381518110611d6c577f4e487b7100000000000000000000000000000000000000000000000000000000600052603260045260246000fd5b6020026020010151604051602001611d8693929190613100565b60405160208183030381529060405291508080611da2906137db565b915050611d08565b5080604051602001611dbc9190613152565b604051602081830303815290604052905080915050919050565b60606000825190506000811415611dff5760405180602001604052806000815250915050611f8f565b60006003600283611e1091906135e1565b611e1a9190613637565b6004611e269190613668565b90506000602082611e3791906135e1565b67ffffffffffffffff811115611e76577f4e487b7100000000000000000000000000000000000000000000000000000000600052604160045260246000fd5b6040519080825280601f01601f191660200182016040528015611ea85781602001600182028036833780820191505090505b5090506000604051806060016040528060408152602001613f48604091399050600181016020830160005b86811015611f4c5760038101905062ffffff818a015116603f8160121c168401518060081b905060ff603f83600c1c1686015116810190508060081b905060ff603f8360061c1686015116810190508060081b905060ff603f831686015116810190508060e01b90508084526004840193505050611ed3565b506003860660018114611f665760028114611f7657611f81565b613d3d60f01b6002830352611f81565b603d60f81b60018303525b508484525050819450505050505b919050565b61202c8282604051602401611faa9291906132e5565b6040516020818303038152906040527f4b5c4277000000000000000000000000000000000000000000000000000000007bffffffffffffffffffffffffffffffffffffffffffffffffffffffff19166020820180517bffffffffffffffffffffffffffffffffffffffffffffffffffffffff8381831617835250505050612177565b5050565b61204a82826040518060200160405280600081525061257a565b5050565b61205782611c05565b612096576040517f08c379a000000000000000000000000000000000000000000000000000000000815260040161208d9061343a565b60405180910390fd5b806006600084815260200190815260200160002090805190602001906120bd929190612830565b505050565b6001816000016000828254019250508190555050565b6121728383836040516024016120f09392919061331c565b6040516020818303038152906040527fe3849f79000000000000000000000000000000000000000000000000000000007bffffffffffffffffffffffffffffffffffffffffffffffffffffffff19166020820180517bffffffffffffffffffffffffffffffffffffffffffffffffffffffff8381831617835250505050612177565b505050565b60008151905060006a636f6e736f6c652e6c6f679050602083016000808483855afa5050505050565b50505050565b50505050565b600080600090507a184f03e93ff9f4daa797ed6e38ed64bf6a1f0100000000000000008310612230577a184f03e93ff9f4daa797ed6e38ed64bf6a1f0100000000000000008381612226577f4e487b7100000000000000000000000000000000000000000000000000000000600052601260045260246000fd5b0492506040810190505b6d04ee2d6d415b85acef81000000008310612293576d04ee2d6d415b85acef81000000008381612289577f4e487b7100000000000000000000000000000000000000000000000000000000600052601260045260246000fd5b0492506020810190505b662386f26fc1000083106122e857662386f26fc1000083816122de577f4e487b7100000000000000000000000000000000000000000000000000000000600052601260045260246000fd5b0492506010810190505b6305f5e1008310612337576305f5e100838161232d577f4e487b7100000000000000000000000000000000000000000000000000000000600052601260045260246000fd5b0492506008810190505b6127108310612382576127108381612378577f4e487b7100000000000000000000000000000000000000000000000000000000600052601260045260246000fd5b0492506004810190505b606483106123cb57606483816123c1577f4e487b7100000000000000000000000000000000000000000000000000000000600052601260045260246000fd5b0492506002810190505b600a83106123da576001810190505b80915050919050565b60006124048473ffffffffffffffffffffffffffffffffffffffff166125d5565b1561256d578373ffffffffffffffffffffffffffffffffffffffff1663150b7a0261242d611458565b8786866040518563ffffffff1660e01b815260040161244f949392919061325c565b602060405180830381600087803b15801561246957600080fd5b505af192505050801561249a57506040513d601f19601f820116820180604052508101906124979190612b74565b60015b61251d573d80600081146124ca576040519150601f19603f3d011682016040523d82523d6000602084013e6124cf565b606091505b50600081511415612515576040517f08c379a000000000000000000000000000000000000000000000000000000000815260040161250c9061337a565b60405180910390fd5b805181602001fd5b63150b7a0260e01b7bffffffffffffffffffffffffffffffffffffffffffffffffffffffff1916817bffffffffffffffffffffffffffffffffffffffffffffffffffffffff191614915050612572565b600190505b949350505050565b61258483836125f8565b61259160008484846123e3565b6125d0576040517f08c379a00000000000000000000000000000000000000000000000000000000081526004016125c79061337a565b60405180910390fd5b505050565b6000808273ffffffffffffffffffffffffffffffffffffffff163b119050919050565b600073ffffffffffffffffffffffffffffffffffffffff168273ffffffffffffffffffffffffffffffffffffffff161415612668576040517f08c379a000000000000000000000000000000000000000000000000000000000815260040161265f9061345a565b60405180910390fd5b61267181611c05565b156126b1576040517f08c379a00000000000000000000000000000000000000000000000000000000081526004016126a8906133ba565b60405180910390fd5b6126bf6000838360016121a0565b6126c881611c05565b15612708576040517f08c379a00000000000000000000000000000000000000000000000000000000081526004016126ff906133ba565b60405180910390fd5b6001600360008473ffffffffffffffffffffffffffffffffffffffff1673ffffffffffffffffffffffffffffffffffffffff16815260200190815260200160002060008282540192505081905550816002600083815260200190815260200160002060006101000a81548173ffffffffffffffffffffffffffffffffffffffff021916908373ffffffffffffffffffffffffffffffffffffffff160217905550808273ffffffffffffffffffffffffffffffffffffffff16600073ffffffffffffffffffffffffffffffffffffffff167fddf252ad1be2c89b69c2b068fc378daa952ba7f163c4a11628f55a4df523b3ef60405160405180910390a46128126000838360016121a6565b5050565b604051806040016040528060608152602001606081525090565b82805461283c90613778565b90600052602060002090601f01602090048101928261285e57600085556128a5565b82601f1061287757805160ff19168380011785556128a5565b828001600101855582156128a5579182015b828111156128a4578251825591602001919060010190612889565b5b5090506128b291906128b6565b5090565b5b808211156128cf5760008160009055506001016128b7565b5090565b60006128e66128e18461355c565b613537565b9050828152602081018484840111156128fe57600080fd5b612909848285613736565b509392505050565b60008135905061292081613eeb565b92915050565b60008135905061293581613f02565b92915050565b60008135905061294a81613f19565b92915050565b60008151905061295f81613f19565b92915050565b600082601f83011261297657600080fd5b81356129868482602086016128d3565b91505092915050565b60008135905061299e81613f30565b92915050565b6000602082840312156129b657600080fd5b60006129c484828501612911565b91505092915050565b600080604083850312156129e057600080fd5b60006129ee85828601612911565b92505060206129ff85828601612911565b9150509250929050565b600080600060608486031215612a1e57600080fd5b6000612a2c86828701612911565b9350506020612a3d86828701612911565b9250506040612a4e8682870161298f565b9150509250925092565b60008060008060808587031215612a6e57600080fd5b6000612a7c87828801612911565b9450506020612a8d87828801612911565b9350506040612a9e8782880161298f565b925050606085013567ffffffffffffffff811115612abb57600080fd5b612ac787828801612965565b91505092959194509250565b60008060408385031215612ae657600080fd5b6000612af485828601612911565b9250506020612b0585828601612926565b9150509250929050565b60008060408385031215612b2257600080fd5b6000612b3085828601612911565b9250506020612b418582860161298f565b9150509250929050565b600060208284031215612b5d57600080fd5b6000612b6b8482850161293b565b91505092915050565b600060208284031215612b8657600080fd5b6000612b9484828501612950565b91505092915050565b600060208284031215612baf57600080fd5b6000612bbd8482850161298f565b91505092915050565b612bcf816136c2565b82525050565b612bde816136d4565b82525050565b6000612bef8261358d565b612bf981856135a3565b9350612c09818560208601613745565b612c1281613911565b840191505092915050565b6000612c2882613598565b612c3281856135b4565b9350612c42818560208601613745565b612c4b81613911565b840191505092915050565b6000612c6182613598565b612c6b81856135c5565b9350612c7b818560208601613745565b612c8481613911565b840191505092915050565b6000612c9a82613598565b612ca481856135d6565b9350612cb4818560208601613745565b80840191505092915050565b6000612ccd602e836135d6565b9150612cd882613922565b602e82019050919050565b6000612cf0602d836135c5565b9150612cfb82613971565b604082019050919050565b6000612d136032836135c5565b9150612d1e826139c0565b604082019050919050565b6000612d36604f836135d6565b9150612d4182613a0f565b604f82019050919050565b6000612d596025836135c5565b9150612d6482613a84565b604082019050919050565b6000612d7c601c836135c5565b9150612d8782613ad3565b602082019050919050565b6000612d9f6024836135c5565b9150612daa82613afc565b604082019050919050565b6000612dc26019836135c5565b9150612dcd82613b4b565b602082019050919050565b6000612de56003836135d6565b9150612df082613b74565b600382019050919050565b6000612e086029836135c5565b9150612e1382613b9d565b604082019050919050565b6000612e2b602e836135c5565b9150612e3682613bec565b604082019050919050565b6000612e4e6002836135d6565b9150612e5982613c3b565b600282019050919050565b6000612e716020836135c5565b9150612e7c82613c64565b602082019050919050565b6000612e94600c836135d6565b9150612e9f82613c8d565b600c82019050919050565b6000612eb7602f836135c5565b9150612ec282613cb6565b604082019050919050565b6000612eda600a836135d6565b9150612ee582613d05565b600a82019050919050565b6000612efd600d836135d6565b9150612f0882613d2e565b600d82019050919050565b6000612f206018836135c5565b9150612f2b82613d57565b602082019050919050565b6000612f436021836135c5565b9150612f4e82613d80565b604082019050919050565b6000612f666002836135d6565b9150612f7182613dcf565b600282019050919050565b6000612f89601d836135d6565b9150612f9482613df8565b601d82019050919050565b6000612fac603d836135c5565b9150612fb782613e21565b604082019050919050565b6000612fcf600a836135d6565b9150612fda82613e70565b600a82019050919050565b6000612ff2600d836135d6565b9150612ffd82613e99565b600d82019050919050565b60006130156006836135d6565b915061302082613ec2565b600682019050919050565b600060408301600083015184820360008601526130488282612c1d565b915050602083015184820360208601526130628282612c1d565b9150508091505092915050565b6130788161372c565b82525050565b600061308a8284612c8f565b915081905092915050565b60006130a18285612c8f565b91506130ad8284612c8f565b91508190509392505050565b60006130c58286612c8f565b91506130d082612f59565b91506130dc8285612c8f565b91506130e782612f59565b91506130f38284612c8f565b9150819050949350505050565b600061310c8286612c8f565b915061311782612fc2565b91506131238285612c8f565b915061312e82612cc0565b915061313a8284612c8f565b915061314582612dd8565b9150819050949350505050565b600061315e8284612c8f565b915061316982613008565b915081905092915050565b600061317f82612e87565b915061318b8284612c8f565b915081905092915050565b60006131a182612ecd565b91506131ad8285612c8f565b91506131b882612d29565b91506131c48284612c8f565b91506131cf82612e41565b91508190509392505050565b60006131e682612ef0565b91506131f28284612c8f565b915081905092915050565b600061320882612f7c565b91506132148284612c8f565b915081905092915050565b600061322a82612fe5565b91506132368284612c8f565b915081905092915050565b60006020820190506132566000830184612bc6565b92915050565b60006080820190506132716000830187612bc6565b61327e6020830186612bc6565b61328b604083018561306f565b818103606083015261329d8184612be4565b905095945050505050565b60006020820190506132bd6000830184612bd5565b92915050565b600060208201905081810360008301526132dd8184612c56565b905092915050565b600060408201905081810360008301526132ff8185612c56565b905081810360208301526133138184612c56565b90509392505050565b600060608201905081810360008301526133368186612c56565b9050613345602083018561306f565b6133526040830184612bc6565b949350505050565b6000602082019050818103600083015261337381612ce3565b9050919050565b6000602082019050818103600083015261339381612d06565b9050919050565b600060208201905081810360008301526133b381612d4c565b9050919050565b600060208201905081810360008301526133d381612d6f565b9050919050565b600060208201905081810360008301526133f381612d92565b9050919050565b6000602082019050818103600083015261341381612db5565b9050919050565b6000602082019050818103600083015261343381612dfb565b9050919050565b6000602082019050818103600083015261345381612e1e565b9050919050565b6000602082019050818103600083015261347381612e64565b9050919050565b6000602082019050818103600083015261349381612eaa565b9050919050565b600060208201905081810360008301526134b381612f13565b9050919050565b600060208201905081810360008301526134d381612f36565b9050919050565b600060208201905081810360008301526134f381612f9f565b9050919050565b60006020820190508181036000830152613514818461302b565b905092915050565b6000602082019050613531600083018461306f565b92915050565b6000613541613552565b905061354d82826137aa565b919050565b6000604051905090565b600067ffffffffffffffff821115613577576135766138e2565b5b61358082613911565b9050602081019050919050565b600081519050919050565b600081519050919050565b600082825260208201905092915050565b600082825260208201905092915050565b600082825260208201905092915050565b600081905092915050565b60006135ec8261372c565b91506135f78361372c565b9250827fffffffffffffffffffffffffffffffffffffffffffffffffffffffffffffffff0382111561362c5761362b613855565b5b828201905092915050565b60006136428261372c565b915061364d8361372c565b92508261365d5761365c613884565b5b828204905092915050565b60006136738261372c565b915061367e8361372c565b9250817fffffffffffffffffffffffffffffffffffffffffffffffffffffffffffffffff04831182151516156136b7576136b6613855565b5b828202905092915050565b60006136cd8261370c565b9050919050565b60008115159050919050565b60007fffffffff0000000000000000000000000000000000000000000000000000000082169050919050565b600073ffffffffffffffffffffffffffffffffffffffff82169050919050565b6000819050919050565b82818337600083830152505050565b60005b83811015613763578082015181840152602081019050613748565b83811115613772576000848401525b50505050565b6000600282049050600182168061379057607f821691505b602082108114156137a4576137a36138b3565b5b50919050565b6137b382613911565b810181811067ffffffffffffffff821117156137d2576137d16138e2565b5b80604052505050565b60006137e68261372c565b91507fffffffffffffffffffffffffffffffffffffffffffffffffffffffffffffffff82141561381957613818613855565b5b600182019050919050565b600061382f8261372c565b915061383a8361372c565b92508261384a57613849613884565b5b828206905092915050565b7f4e487b7100000000000000000000000000000000000000000000000000000000600052601160045260246000fd5b7f4e487b7100000000000000000000000000000000000000000000000000000000600052601260045260246000fd5b7f4e487b7100000000000000000000000000000000000000000000000000000000600052602260045260246000fd5b7f4e487b7100000000000000000000000000000000000000000000000000000000600052604160045260246000fd5b6000601f19601f8301169050919050565b7f2720793d273230272077696474683d2731303027206865696768743d2731303060008201527f2720786c696e6b3a687265663d27000000000000000000000000000000000000602082015250565b7f4552433732313a2063616c6c6572206973206e6f7420746f6b656e206f776e6560008201527f72206f7220617070726f76656400000000000000000000000000000000000000602082015250565b7f4552433732313a207472616e7366657220746f206e6f6e20455243373231526560008201527f63656976657220696d706c656d656e7465720000000000000000000000000000602082015250565b7f222c20226465736372697074696f6e223a20224120756e6971756520506f6b6560008201527f6d6f6e204e465421222c2022696d616765223a2022646174613a696d6167652f60208201527f7376672b786d6c3b6261736536342c0000000000000000000000000000000000604082015250565b7f4552433732313a207472616e736665722066726f6d20696e636f72726563742060008201527f6f776e6572000000000000000000000000000000000000000000000000000000602082015250565b7f4552433732313a20746f6b656e20616c7265616479206d696e74656400000000600082015250565b7f4552433732313a207472616e7366657220746f20746865207a65726f2061646460008201527f7265737300000000000000000000000000000000000000000000000000000000602082015250565b7f4552433732313a20617070726f766520746f2063616c6c657200000000000000600082015250565b7f272f3e0000000000000000000000000000000000000000000000000000000000600082015250565b7f4552433732313a2061646472657373207a65726f206973206e6f74206120766160008201527f6c6964206f776e65720000000000000000000000000000000000000000000000602082015250565b7f45524337323155524953746f726167653a2055524920736574206f66206e6f6e60008201527f6578697374656e7420746f6b656e000000000000000000000000000000000000602082015250565b7f227d000000000000000000000000000000000000000000000000000000000000600082015250565b7f4552433732313a206d696e7420746f20746865207a65726f2061646472657373600082015250565b7f464952455f504f4b454d4f4e0000000000000000000000000000000000000000600082015250565b7f4552433732314d657461646174613a2055524920717565727920666f72206e6f60008201527f6e6578697374656e7420746f6b656e0000000000000000000000000000000000602082015250565b7f7b226e616d65223a202200000000000000000000000000000000000000000000600082015250565b7f57415445525f504f4b454d4f4e00000000000000000000000000000000000000600082015250565b7f4552433732313a20696e76616c696420746f6b656e2049440000000000000000600082015250565b7f4552433732313a20617070726f76616c20746f2063757272656e74206f776e6560008201527f7200000000000000000000000000000000000000000000000000000000000000602082015250565b7f2c20000000000000000000000000000000000000000000000000000000000000600082015250565b7f646174613a6170706c69636174696f6e2f6a736f6e3b6261736536342c000000600082015250565b7f4552433732313a20617070726f76652063616c6c6572206973206e6f7420746f60008201527f6b656e206f776e6572206f7220617070726f76656420666f7220616c6c000000602082015250565b7f3c696d61676520783d2700000000000000000000000000000000000000000000600082015250565b7f47524153535f504f4b454d4f4e00000000000000000000000000000000000000600082015250565b7f3c2f7376673e0000000000000000000000000000000000000000000000000000600082015250565b613ef4816136c2565b8114613eff57600080fd5b50565b613f0b816136d4565b8114613f1657600080fd5b50565b613f22816136e0565b8114613f2d57600080fd5b50565b613f398161372c565b8114613f4457600080fd5b5056fe4142434445464748494a4b4c4d4e4f505152535455565758595a6162636465666768696a6b6c6d6e6f707172737475767778797a303132333435363738392b2f3c73766720786d6c6e733d27687474703a2f2f7777772e77332e6f72672f323030302f7376672720786d6c6e733a786c696e6b3d27687474703a2f2f7777772e77332e6f72672f313939392f786c696e6b27207072657365727665417370656374526174696f3d27784d696e594d696e206d656574272076696577426f783d273020302033353020333530273e416e204e4654207769746820494420257320686173206265656e206d696e74656420746f202573a2646970667358221220de3ea406d005ee3f1628c8446c4811bc1b7aa72a904a1bd12f1545df58de3dc764736f6c6343000801003368747470733a2f2f7261772e67697468756275736572636f6e74656e742e636f6d2f6d617263757376696e69636975733137382f737072697465732f6d61737465722f737072697465732f706f6b656d6f6e2f38302e706e6768747470733a2f2f7261772e67697468756275736572636f6e74656e742e636f6d2f6d617263757376696e69636975733137382f737072697465732f6d61737465722f737072697465732f706f6b656d6f6e2f33372e706e6768747470733a2f2f7261772e67697468756275736572636f6e74656e742e636f6d2f6d617263757376696e69636975733137382f737072697465732f6d61737465722f737072697465732f706f6b656d6f6e2f3133362e706e6768747470733a2f2f7261772e67697468756275736572636f6e74656e742e636f6d2f6d617263757376696e69636975733137382f737072697465732f6d61737465722f737072697465732f706f6b656d6f6e2f362e706e6768747470733a2f2f7261772e67697468756275736572636f6e74656e742e636f6d2f6d617263757376696e69636975733137382f737072697465732f6d61737465722f737072697465732f706f6b656d6f6e2f3131342e706e6768747470733a2f2f7261772e67697468756275736572636f6e74656e742e636f6d2f6d617263757376696e69636975733137382f737072697465732f6d61737465722f737072697465732f706f6b656d6f6e2f3135342e706e6768747470733a2f2f7261772e67697468756275736572636f6e74656e742e636f6d2f6d617263757376696e69636975733137382f737072697465732f6d61737465722f737072697465732f706f6b656d6f6e2f39382e706e6768747470733a2f2f7261772e67697468756275736572636f6e74656e742e636f6d2f6d617263757376696e69636975733137382f737072697465732f6d61737465722f737072697465732f706f6b656d6f6e2f37392e706e6768747470733a2f2f7261772e67697468756275736572636f6e74656e742e636f6d2f6d617263757376696e69636975733137382f737072697465732f6d61737465722f737072697465732f706f6b656d6f6e2f3132312e706e6768747470733a2f2f7261772e67697468756275736572636f6e74656e742e636f6d2f6d617263757376696e69636975733137382f737072697465732f6d61737465722f737072697465732f706f6b656d6f6e2f37322e706e6768747470733a2f2f7261772e67697468756275736572636f6e74656e742e636f6d2f6d617263757376696e69636975733137382f737072697465732f6d61737465722f737072697465732f706f6b656d6f6e2f35352e706e6768747470733a2f2f7261772e67697468756275736572636f6e74656e742e636f6d2f6d617263757376696e69636975733137382f737072697465732f6d61737465722f737072697465732f706f6b656d6f6e2f36392e706e6768747470733a2f2f7261772e67697468756275736572636f6e74656e742e636f6d2f6d617263757376696e69636975733137382f737072697465732f6d61737465722f737072697465732f706f6b656d6f6e2f37372e706e6768747470733a2f2f7261772e67697468756275736572636f6e74656e742e636f6d2f6d617263757376696e69636975733137382f737072697465732f6d61737465722f737072697465732f706f6b656d6f6e2f34332e706e6768747470733a2f2f7261772e67697468756275736572636f6e74656e742e636f6d2f6d617263757376696e69636975733137382f737072697465732f6d61737465722f737072697465732f706f6b656d6f6e2f3132362e706e6768747470733a2f2f7261772e67697468756275736572636f6e74656e742e636f6d2f6d617263757376696e69636975733137382f737072697465732f6d61737465722f737072697465732f706f6b656d6f6e2f3235352e706e6768747470733a2f2f7261772e67697468756275736572636f6e74656e742e636f6d2f6d617263757376696e69636975733137382f737072697465732f6d61737465722f737072697465732f706f6b656d6f6e2f3131372e706e6768747470733a2f2f7261772e67697468756275736572636f6e74656e742e636f6d2f6d617263757376696e69636975733137382f737072697465732f6d61737465722f737072697465732f706f6b656d6f6e2f3135322e706e6768747470733a2f2f7261772e67697468756275736572636f6e74656e742e636f6d2f6d617263757376696e69636975733137382f737072697465732f6d61737465722f737072697465732f706f6b656d6f6e2f3135372e706e6768747470733a2f2f7261772e67697468756275736572636f6e74656e742e636f6d2f6d617263757376696e69636975733137382f737072697465732f6d61737465722f737072697465732f706f6b656d6f6e2f39302e706e67272f3e3c696d61676520783d273234302720793d273230272077696474683d2731303027206865696768743d273130302720786c696e6b3a687265663d2768747470733a2f2f7261772e67697468756275736572636f6e74656e742e636f6d2f6d617263757376696e69636975733137382f737072697465732f6d61737465722f737072697465732f706f6b656d6f6e2f37332e706e6768747470733a2f2f7261772e67697468756275736572636f6e74656e742e636f6d2f6d617263757376696e69636975733137382f737072697465732f6d61737465722f737072697465732f706f6b656d6f6e2f35392e706e6768747470733a2f2f7261772e67697468756275736572636f6e74656e742e636f6d2f6d617263757376696e69636975733137382f737072697465732f6d61737465722f737072697465732f706f6b656d6f6e2f3234302e706e6768747470733a2f2f7261772e67697468756275736572636f6e74656e742e636f6d2f6d617263757376696e69636975733137382f737072697465732f6d61737465722f737072697465732f706f6b656d6f6e2f34342e706e6768747470733a2f2f7261772e67697468756275736572636f6e74656e742e636f6d2f6d617263757376696e69636975733137382f737072697465732f6d61737465722f737072697465732f706f6b656d6f6e2f312e706e6768747470733a2f2f7261772e67697468756275736572636f6e74656e742e636f6d2f6d617263757376696e69636975733137382f737072697465732f6d61737465722f737072697465732f706f6b656d6f6e2f332e706e6768747470733a2f2f7261772e67697468756275736572636f6e74656e742e636f6d2f6d617263757376696e69636975733137382f737072697465732f6d61737465722f737072697465732f706f6b656d6f6e2f33382e706e6768747470733a2f2f7261772e67697468756275736572636f6e74656e742e636f6d2f6d617263757376696e69636975733137382f737072697465732f6d61737465722f737072697465732f706f6b656d6f6e2f3235302e706e6768747470733a2f2f7261772e67697468756275736572636f6e74656e742e636f6d2f6d617263757376696e69636975733137382f737072697465732f6d61737465722f737072697465732f706f6b656d6f6e2f39312e706e6768747470733a2f2f7261772e67697468756275736572636f6e74656e742e636f6d2f6d617263757376696e69636975733137382f737072697465732f6d61737465722f737072697465732f706f6b656d6f6e2f3138382e706e6768747470733a2f2f7261772e67697468756275736572636f6e74656e742e636f6d2f6d617263757376696e69636975733137382f737072697465732f6d61737465722f737072697465732f706f6b656d6f6e2f3131362e706e6768747470733a2f2f7261772e67697468756275736572636f6e74656e742e636f6d2f6d617263757376696e69636975733137382f737072697465732f6d61737465722f737072697465732f706f6b656d6f6e2f3138392e706e6768747470733a2f2f7261772e67697468756275736572636f6e74656e742e636f6d2f6d617263757376696e69636975733137382f737072697465732f6d61737465722f737072697465732f706f6b656d6f6e2f372e706e6768747470733a2f2f7261772e67697468756275736572636f6e74656e742e636f6d2f6d617263757376696e69636975733137382f737072697465732f6d61737465722f737072697465732f706f6b656d6f6e2f36302e706e6768747470733a2f2f7261772e67697468756275736572636f6e74656e742e636f6d2f6d617263757376696e69636975733137382f737072697465732f6d61737465722f737072697465732f706f6b656d6f6e2f35382e706e6768747470733a2f2f7261772e67697468756275736572636f6e74656e742e636f6d2f6d617263757376696e69636975733137382f737072697465732f6d61737465722f737072697465732f706f6b656d6f6e2f3135332e706e6768747470733a2f2f7261772e67697468756275736572636f6e74656e742e636f6d2f6d617263757376696e69636975733137382f737072697465732f6d61737465722f737072697465732f706f6b656d6f6e2f3130332e706e6768747470733a2f2f7261772e67697468756275736572636f6e74656e742e636f6d2f6d617263757376696e69636975733137382f737072697465732f6d61737465722f737072697465732f706f6b656d6f6e2f3135362e706e6768747470733a2f2f7261772e67697468756275736572636f6e74656e742e636f6d2f6d617263757376696e69636975733137382f737072697465732f6d61737465722f737072697465732f706f6b656d6f6e2f392e706e6768747470733a2f2f7261772e67697468756275736572636f6e74656e742e636f6d2f6d617263757376696e69636975733137382f737072697465732f6d61737465722f737072697465732f706f6b656d6f6e2f3234342e706e6768747470733a2f2f7261772e67697468756275736572636f6e74656e742e636f6d2f6d617263757376696e69636975733137382f737072697465732f6d61737465722f737072697465732f706f6b656d6f6e2f3139312e706e6768747470733a2f2f7261772e67697468756275736572636f6e74656e742e636f6d2f6d617263757376696e69636975733137382f737072697465732f6d61737465722f737072697465732f706f6b656d6f6e2f322e706e6768747470733a2f2f7261772e67697468756275736572636f6e74656e742e636f6d2f6d617263757376696e69636975733137382f737072697465732f6d61737465722f737072697465732f706f6b656d6f6e2f37382e706e6768747470733a2f2f7261772e67697468756275736572636f6e74656e742e636f6d2f6d617263757376696e69636975733137382f737072697465732f6d61737465722f737072697465732f706f6b656d6f6e2f36312e706e67272f3e3c696d61676520783d273132352720793d273230272077696474683d2731303027206865696768743d273130302720786c696e6b3a687265663d2768747470733a2f2f7261772e67697468756275736572636f6e74656e742e636f6d2f6d617263757376696e69636975733137382f737072697465732f6d61737465722f737072697465732f706f6b656d6f6e2f342e706e673c73766720786d6c6e733d27687474703a2f2f7777772e77332e6f72672f323030302f7376672720786d6c6e733a786c696e6b3d27687474703a2f2f7777772e77332e6f72672f313939392f786c696e6b27207072657365727665417370656374526174696f3d27784d696e594d696e206d656574272076696577426f783d273020302033353020333530273e3c696d61676520783d2731302720793d273230272077696474683d2731303027206865696768743d273130302720786c696e6b3a687265663d2768747470733a2f2f7261772e67697468756275736572636f6e74656e742e636f6d2f6d617263757376696e69636975733137382f737072697465732f6d61737465722f737072697465732f706f6b656d6f6e2f3231382e706e6768747470733a2f2f7261772e67697468756275736572636f6e74656e742e636f6d2f6d617263757376696e69636975733137382f737072697465732f6d61737465722f737072697465732f706f6b656d6f6e2f37312e706e6768747470733a2f2f7261772e67697468756275736572636f6e74656e742e636f6d2f6d617263757376696e69636975733137382f737072697465732f6d61737465722f737072697465732f706f6b656d6f6e2f34352e706e6768747470733a2f2f7261772e67697468756275736572636f6e74656e742e636f6d2f6d617263757376696e69636975733137382f737072697465732f6d61737465722f737072697465732f706f6b656d6f6e2f3138322e706e6768747470733a2f2f7261772e67697468756275736572636f6e74656e742e636f6d2f6d617263757376696e69636975733137382f737072697465732f6d61737465722f737072697465732f706f6b656d6f6e2f352e706e6768747470733a2f2f7261772e67697468756275736572636f6e74656e742e636f6d2f6d617263757376696e69636975733137382f737072697465732f6d61737465722f737072697465732f706f6b656d6f6e2f382e706e6768747470733a2f2f7261772e67697468756275736572636f6e74656e742e636f6d2f6d617263757376696e69636975733137382f737072697465732f6d61737465722f737072697465732f706f6b656d6f6e2f3130322e706e6768747470733a2f2f7261772e67697468756275736572636f6e74656e742e636f6d2f6d617263757376696e69636975733137382f737072697465732f6d61737465722f737072697465732f706f6b656d6f6e2f3132302e706e6768747470733a2f2f7261772e67697468756275736572636f6e74656e742e636f6d2f6d617263757376696e69636975733137382f737072697465732f6d61737465722f737072697465732f706f6b656d6f6e2f3231392e706e6768747470733a2f2f7261772e67697468756275736572636f6e74656e742e636f6d2f6d617263757376696e69636975733137382f737072697465732f6d61737465722f737072697465732f706f6b656d6f6e2f3138372e706e6768747470733a2f2f7261772e67697468756275736572636f6e74656e742e636f6d2f6d617263757376696e69636975733137382f737072697465732f6d61737465722f737072697465732f706f6b656d6f6e2f3135352e706e6768747470733a2f2f7261772e67697468756275736572636f6e74656e742e636f6d2f6d617263757376696e69636975733137382f737072697465732f6d61737465722f737072697465732f706f6b656d6f6e2f37302e706e6768747470733a2f2f7261772e67697468756275736572636f6e74656e742e636f6d2f6d617263757376696e69636975733137382f737072697465732f6d61737465722f737072697465732f706f6b656d6f6e2f36322e706e6768747470733a2f2f7261772e67697468756275736572636f6e74656e742e636f6d2f6d617263757376696e69636975733137382f737072697465732f6d61737465722f737072697465732f706f6b656d6f6e2f35342e706e6768747470733a2f2f7261772e67697468756275736572636f6e74656e742e636f6d2f6d617263757376696e69636975733137382f737072697465732f6d61737465722f737072697465732f706f6b656d6f6e2f39392e706e67",
  "linkReferences": {},
  "deployedLinkReferences": {}
}